:020000040800F2
:100000007006002049010008510100085301000852
:1000100055010008570100085901000800000000C0
:100020000000000000000000000000005B0100086C
:100030005D010008000000005F0100082D090008B4
:100040006301000863010008630100086301000800
:1000500063010008630100086301000863010008F0
:1000600063010008630100086301000863010008E0
:1000700063010008630100086301000863010008D0
:1000800063010008630100086301000863010008C0
:1000900063010008630100086301000863010008B0
:1000A00063010008630100086301000863010008A0
:1000B0006301000863010008630100086301000890
:1000C0006301000863010008630100086301000880
:1000D0006301000863010008110D0008810D00088C
:1000E0006301000863010008630100086301000860
:1000F0006301000863010008630100086301000850
:10010000630100086301000863010008630100083F
:1001100063010008990C00086301000863010008EE
:10012000630100086301000863010008630100081F
:10013000DFF810D000F08AF90048004729130008C2
:10014000AFF300807006002006488047064800474D
:10015000FEE7FEE7FEE7FEE7FEE7FEE7FEE7FEE777
:10016000FEE7FEE79509000831010008F0B480EAD7
:100170000102D40F4200B2EB410F02D20246084600
:1001800011464A0042D0C30DDDB2C1F3C752AD1AC9
:10019000202D35DAC1F3160141F4000204B15242B8
:1001A000C5F1200602FA06F12A411044B3EBD05FF4
:1001B00023D0C4B1012DA0EBC35009DCF0BC4FF03B
:1001C000004202EAC352DBB200F5000000F0CBB8F7
:1001D000400000F1807000EBC350A0F1807040EA55
:1001E000D170490009E0490841EAC071A0EBC35051
:1001F00000F50000400800EBC350F0BC00F0AAB8C6
:100200006142012202EB4101001BF6E7F0BC70479E
:1002100081F00041AAE780F00040A7E780EA0102F0
:1002200010B502F00043400022D04A001FD0010E5A
:1002300001EB1261C0F35600C2F3560240F4000015
:1002400042F40002A0FB022000047F39140400D015
:10025000401C50EA124001D44000491EC2B20C06B4
:1002600004EBD010401C4008802A02D003E000209C
:1002700010BD20F00100002900DA0020184310BD55
:1002800030B480EA010202F0004530F0004221F073
:10029000004013D090B1C30DD40DC2F31601C0F3CA
:1002A0001600E41A41F4000140F400027D3491424A
:1002B00001D3641C00E04900002C02DA30BC0020AD
:1002C00070474FF400000023914201D3891A034381
:1002D00040084FEA4101F7D151B1914202D14FF0AC
:1002E000004105E002D24FF0010101E06FF0010191
:1002F00003EBC450284430BC00F02CB8C10F80EA96
:10030000E0700844CA079623002100F02CB8962319
:100310000022114600F027B820F00040C10DC0F3C4
:10032000160040F400007F2901DA0020704796296A
:1003300003DCC1F19601C840704796398840704788
:10034000002801DBC0F10040002901DBC1F10041C0
:10035000814270470029A8BF7047401C490008BF70
:1003600020F00100704710B4B0FA80FC00FA0CF0E5
:1003700050EA010404BF10BC704749B1CCF120041D
:1003800021FA04F411FA0CF118BF012121430843AA
:10039000A3EB0C01CB1D4FEA00614FEA102042BFD6
:1003A000002010BC704700EBC35010440029A4BFCC
:1003B00010BC7047401C490008BF20F0010010BC71
:1003C000704710B541000CD0C0F3C751962908DC26
:1003D0007E2909DC06DB410204D000F0004040F039
:1003E0007E5010BD002010BDC1F19604C4F1200163
:1003F00000FA01F1E040FFF7ADFFA04010BD10B5DD
:1004000000F0004420F00040C20DC0F3160040F49C
:1004100000007F2A07DA7D2A00DA7D22763A00FA88
:1004200002F1002008E0962A09DCA2F1760100FA28
:1004300001F1C2F19602D040FFF78CFF01E0963A3D
:100440009040002C00D0404210BD0000064C074DEB
:1004500006E0E06840F0010394E807009847103494
:10046000AC42F6D3FFF768FE041600082416000815
:100470002DE9FF410AADE0CD0024009401940294DF
:1004800003948DF80000FD208DF801008DF8021016
:10049000100A8DF803008DF804208DF80530280E21
:1004A0008DF80600280C8DF80700280A8DF8080042
:1004B0008DF809508DF80A608DF80B706B208DF85F
:1004C0000C000D21684601F087F8BDE8FF812DE999
:1004D000F0410022CC7804F00F03E40601D58C78BB
:1004E00023430C784FF00F0714F0FF0F4FF0010C6F
:1004F0001CD005680CFA02F40E882640A64211D1E1
:10050000960007FA06F825EA080503FA06F848EA0D
:100510000505CE78282E02D0482E02D002E0446194
:1005200000E00461521C082AE4D305600A88FF2A0F
:100530001ED94568002202F108060CFA06F40E885E
:100540002640A64210D1960007FA06F825EA0805CB
:1005500003FA06F848EA0505CE78282E00D1446152
:10056000CE78482E00D10461521C082AE3D345609E
:10057000BDE8F08170B50F23C27801260178002A0A
:100580001ED0144A126802F4E062C2F5E062120A58
:10059000C2F10404D3404578A54082781A402A432A
:1005A000120101F1E02181F80024007800F01F0120
:1005B0008E404009800000F1E020C0F8006170BD6D
:1005C00001F01F0086404809800000F1E020C0F8DB
:1005D000806170BD0CED00E00249084302490860EB
:1005E000704700000000FA050CED00E030B589B05E
:1005F0000121042000F068F80121082000F072F8C1
:1006000018208DF823004FF4E070ADF8200003208F
:100610008DF8220008A92448FFF759FF234D2846EA
:1006200000F0F8F90024ADF81A40ADF8164044F691
:100630001F61ADF818104720ADF814008DF81C406C
:1006400005A9284600F0DAFA01A800F0C9FA6020EE
:10065000ADF80400ADF80C400120ADF80600ADF88F
:100660000A4001A9284600F0DBF901A9284600F05C
:1006700021FA01A9284600F06BFA0821284600F06B
:1006800013FA0821284600F059FA0821284600F0FC
:10069000A1FA0121284600F0A5F90121284600F021
:1006A000ADF909B030BD0000000C01400008004069
:1006B0000146014800F09EBA00080040014601488A
:1006C00000F09ABA00080040054A002903D0D16919
:1006D0000143D1617047D1698143D1617047000006
:1006E00000100240054A002903D09169014391613D
:1006F000704791698143916170470000001002408A
:1007000010B5264A516801F00C01254B002927D06D
:10071000042927D0082927D00360516801F0F0018F
:100720000909204B5C5C0168E1404160546804F4B5
:10073000E064240A1C5D21FA04F48460546804F423
:100740006054E40A1B5DD940C160526802F4404223
:10075000920B144B1B1F9A5CB1FBF2F1016110BDAF
:100760000360DAE70360D8E7516801F47011536859
:1007700003F48033022404EB914133B153689B03AB
:1007800007D5094B59430160C7E7074B594301603F
:10079000C3E7034B59430160BFE70000001002406C
:1007A00000127A004E00002000093D000260002285
:1007B0008280C280491C0181002103E003685A54F1
:1007C000491C89B203898B42F8D870472DE9F04162
:1007D00007460D461646002405E0285D394600F020
:1007E00006F8641CA4B2B442F7D3BDE8F08110B59A
:1007F0000C460146204600F0B3FB8021204600F065
:100800000BFB0028F9D010BDAFF300800CB500221F
:10081000019200922748016841F4803101604FF451
:10082000A063016801F4003100910199491C019114
:10083000009911B901999942F3D10168890302D550
:100840000121009100E000920099012930D11A495C
:100850000A6842F010020A600A6822F007020A6081
:100860000A6842F002020A604168416041684160E2
:10087000416841F480614160416821F47C1141602C
:10088000416841F4E8114160016841F08071016004
:1008900001688901FCD5416821F00301416041688C
:1008A00041F0020141604168C1F381010229FAD19E
:1008B0000CBD00000010024000200240B0F1807F1B
:1008C00001D30120704720F07F414FF0E020491E06
:1008D0004161044AF0211170002181610721016109
:1008E0000020704723ED00E031B50D4C0D49206824
:1008F000B0FBF1F0FFF7E2FF0B490098086000F051
:1009000037F820684FF47A71B0FBF1F0FFF7D6FFAB
:100910004FF0E020016921F00101016138BD0000C4
:100920006000002040420F002800002005480168B8
:10093000002903D00168491E016070470021016051
:10094000704700002800002010B5084801684FF4E7
:100950007A70B1FBF0F0FFF7B1FF00B1FEE74FF0A6
:10096000E020016921F00101016110BD600000205B
:100970004FF0E022106940F0010010610448016866
:100980000029FCD1106920F00100106170470000BF
:100990002800002010B50F48016841F001010160F6
:1009A00041680D4A1140416001680C4A11400160E4
:1009B000016821F480210160416821F4FE01416059
:1009C0004FF41F018160FFF71FFF05494FF00060E2
:1009D000086010BD001002400000FFF8FFFFF6FEA7
:1009E00008ED00E0002904D0018841F08001018079
:1009F0007047018821F0800101807047002904D0F0
:100A0000018841F0010101807047018821F0010156
:100A100001807047018921F00701018170470000C2
:100A200030B5028C22F001020284028C8388048B90
:100A300024F0700424F003050C882C4322F00202F9
:100A40000D8915434A882A43124DA8420BD0124DF6
:100A5000A84208D0114DA84205D0114DA84202D09D
:100A6000104DA8420FD122F008054A892A4322F0EE
:100A700004058A882A4323F4807323F400738D8944
:100A80001D43CB892B4383800483C98881860284DC
:100A900030BD0000002C0140003401400040014006
:100AA0000044014000480140028B22F008020A4342
:100AB0000283704770B5028C22F010020284028C0F
:100AC0008388048B24F4E04424F440760D884FF6A8
:100AD000FF7404EA0525354322F020020E8904EA5A
:100AE000061616434A8804EA02123243114EB042F7
:100AF00002D0114EB04217D122F080024E8904EA92
:100B00000616164326F040068A8804EA021232438B
:100B100023F4806323F400638E8904EA86061E436F
:100B2000CB8904EA8303334383800583C988018723
:100B3000028470BD002C014000340140028B22F47D
:100B400000624FF6FF7303EA0121114301837047EE
:100B500070B5028C22F480720284028C8388848BAC
:100B600024F0700424F003040D88254322F400725D
:100B70000E894FF6FF7404EA062616434A8804EAF3
:100B800002223243114EB04202D0114EB04217D170
:100B900022F400664A8904EA0222324322F4806683
:100BA0008A8804EA0222324323F4805323F4005358
:100BB0008E8904EA06161E43CB8904EA03133343E5
:100BC00083808583C9888187028470BD002C0140A1
:100BD00000340140828B22F008020A43828370476E
:100BE0000021018041808180C1800181418181811A
:100BF000C1817047818670470187704730B5028890
:100C00001B4C1C4DA0420DD0A8420BD0B0F1804F20
:100C100008D0194B984205D0184B984202D0184B77
:100C2000984203D122F070034A881A43154B984228
:100C300006D0154B984203D022F44073CA881A4359
:100C400002808A8882850A880285A0420AD0A8424A
:100C500008D00E4A904205D00D4A904202D00D4A6B
:100C6000904201D1097A01860121818230BD0000C4
:100C7000002C014000340140000400400008004006
:100C8000000C0040001000400014004000400140F3
:100C90000044014000480140F8B500260096194C78
:100CA00040F225552946204600F0BDF848B1A088FD
:100CB000C0B200F0C1FA29462046BDE8F84000F075
:100CC00097B840F22441204600F0ADF8002818D033
:100CD0002088A08800F0C4FA0B4D687000960B4C79
:100CE00008E000F095FABDF800106054BDF800006F
:100CF000401C0090BDF8000069788842F1D30120C3
:100D00002870F8BD0050004048000020E800002096
:100D10002DE9F041174E40F225573946304600F094
:100D200082F8012823D1304600F016F9124C134DF9
:100D3000A278511CCBB2A370A8540022012B03D17E
:100D40002878FF2800D0A270A0780A2805D1687AF8
:100D5000FE2808D0A2702A70227039463046BDE8BD
:100D6000F04100F045B8A27001202070F5E7BDE821
:100D7000F081000000440040240000208200002098
:100D80002DE9F041174E40F225573946304600F024
:100D90004AF8012823D1304600F0DEF8124C134DFA
:100DA000E278511CCBB2E370A8540022012B03D18E
:100DB0002878FF2800D0E270E0780A2805D1687A08
:100DC000FE2808D0E2702A70627039463046BDE8CD
:100DD000F04100F00DB8E27001206070F5E7BDE869
:100DE000F08100000048004024000020BA000020EC
:100DF00040F66A120A0A01219140C94301807047F6
:100E0000002904D0818941F4005181817047818992
:100E100021F40051818170470246002012880A4265
:100E200000D00120704770B5002440F66A12C1F36B
:100E3000421301F01F05012606FA05F2012B0CD022
:100E4000022B0DD0838A1340090A8E40008830405F
:100E50000BB100B10124204670BD83891340F3E734
:100E6000038A1340F0E710B540F66A13C1F342134A
:100E700001F01F040121A140012B07D0022B07D054
:100E800014303AB102680A43026010BD0C30F8E732
:100E90001030F6E702688A43026010BD30B585B0B5
:100EA00004460D46208A4CF6FF710840E98801434C
:100EB0002182A0894EF6F3110840A9882A8911439E
:100EC0006A8902431143A181A08A4FF6FF4108407D
:100ED000A9890143A1826846FFF712FC1D4884429C
:100EE00001D1039800E00298A189090408D500EB1C
:100EF000C00101EB001029684900B0FBF1F007E0E8
:100F000000EBC00101EB001029688900B0FBF1F093
:100F10006422B0FBF2F109010B096FF018056B4375
:100F200000EB8300A3891D044FF0320307D503EBC8
:100F3000C000B0FBF2F000F00700084306E003EB4E
:100F40000010B0FBF2F000F00F000843208105B064
:100F500030BD0000003801408088C0F308007047B1
:100F6000C1F30801818070472DE9F04F87B0654CCF
:100F7000DFF88C81C4F80080A4F12C020A2102F170
:100F80001400FFF713FCA4F122020A2102F116005B
:100F9000FFF70CFCA4F10C00A0600C38606001218C
:100FA0004804FFF791FB01210420FFF79BFB042677
:100FB000ADF8186003258DF81A504FF0180A8DF817
:100FC0001BA0514C06A92046FFF781FA0820ADF876
:100FD00018008DF81B6006A92046FFF778FA262036
:100FE0008DF804008DF8055000248DF80640012787
:100FF0008DF8077001A8FFF7BDFA4FF4E13BCDF87B
:1010000008B0ADF80C40ADF80E40ADF81040ADF8AA
:1010100014400C20ADF8120002A94046FFF73EFF35
:10102000012240F225514046FFF71DFF01214046B5
:10103000FFF7E6FEDFF8CC80DFF8D09008F1380843
:10104000C8F80090A8F12C020A2102F11400FFF761
:10105000ADFBA8F122020A2102F11600FFF7A6FB60
:10106000A8F10C00C8F808000C38C8F804000121E9
:101070008804FFF729FB01210820FFF733FB30022A
:10108000ADF818008DF81A508DF81BA0DFF880809D
:1010900006A94046FFF71BFA7002ADF818008DF85C
:1010A0001B6006A94046FFF712FA27208DF80400BE
:1010B0008DF805508DF806708DF8077001A8FFF7C0
:1010C00059FACDF808B0ADF80C40ADF80E40ADF8C7
:1010D0001040ADF814400C20ADF8120002A94846AB
:1010E000FFF7DCFE012240F225514846FFF7BBFE28
:1010F00001214846FFF784FE07B0BDE8F08F0000ED
:1011000000440040A40000200008014000480040C6
:10111000000C014002E008C8121F08C1002AFAD1E1
:1011200070477047002001E001C1121F002AFBD167
:1011300070470000014908607047000074000020FB
:1011400030B587B001213020FFF7CCFA0121080526
:10115000FFF7BAFA4FF48050ADF8180003208DF86D
:101160001A0018208DF81B0006A92248FFF7AFF9D6
:101170000420ADF8180048208DF81B0006A91E4871
:10118000FFF7A5F94FF4E13002900020ADF80C0014
:10119000ADF80E00ADF810000C20ADF81200174CA1
:1011A00002A92046FFF77AFE4FF4A060FFF714FA79
:1011B00001208DF807008DF8060002208DF805004B
:1011C00035208DF8040001A8FFF7D4F92088A08805
:1011D00040F2255529462046FFF70AFE01222946FE
:1011E0002046FFF740FE01212046FFF709FE07B029
:1011F00030BD0000001001400014014000500040CC
:1012000011B44FF47A71009818BC4843FFF76CBBD7
:10121000084991F8010131F8100091F80121521CA0
:1012200081F8012191F80121802A02D3002281F85E
:101230000121704768010020084991F8002121F838
:10124000120091F80001401C81F8000191F80001A2
:10125000802802D3002081F8000170476801002037
:101260000B4890F8011190F80021914206D890F8AF
:10127000001190F80101081A80B2704790F801112E
:1012800090F80001C1F18001084480B2704700006D
:101290006801002070B50546FFF793F80446014643
:1012A0002846FEF7B5FF15F0004F4FF07F450ED0F2
:1012B000B0F13F4F28BFB5EB400F0ED2B0F17C5FCD
:1012C0001DDDB5EB400F1AD313E0044617E0B0F173
:1012D0003F4F08D9B5EB400F05D34FF07E51204664
:1012E000FEF796FFF1E7B0F17C5F08DBB5EB400F4E
:1012F00005D34FF07E512046FEF738FFE5E7B4F105
:101300009E4F02DDB5EB440F05D2B4F14F4F05D926
:10131000B5EB440F02D30120FFF70CFF2046BDE8D8
:101320007040FFF76CB80000FFF70EFBFFF75EF9A7
:10133000FFF71AFEFFF704FF4FF4FA60FFF760FFB4
:10134000404F414EDFF80491414DDFF80881002401
:10135000387801280DD13C706878022815D00A220F
:101360003B494846FFF732FA00202C54401C0A281B
:10137000FBDB98F800000128EAD188F800400A2237
:1013800035493648FFF722FAE2E7A87860B101282C
:10139000EFD10A222E494846FFF718FA00216C5473
:1013A000491C0A29FBDBE4E7E878F06029797161E0
:1013B00041EA0020FEF7ABFFF0617168FEF7C0FF65
:1013C00007D0F06900F04CF8F06970600A20FFF770
:1013D00017FF68793061A979B16141EA0020FEF711
:1013E00096FF3062B168FEF7ABFF0CD0306AB0F107
:1013F0007E5F00DA3462306A00F04CF8306AB06028
:101400000A20FFF7FDFEE879B0703178884206D0F7
:1014100000F068F8B07830700A20FFF7F1FE287A03
:10142000F0707178884206D000F088F8F07870701B
:101430000A20FFF7E5FE00202C54401C0A28FBDBA5
:1014400097E7000024000020000000200048004032
:101450008200002025000020BA0000200044004047
:101460000EB50A49FEF70CFF0949FEF7D7FEFEF755
:1014700053FF00210122CDE9012100900121052324
:1014800032220846FEF7F4FF0EBD00000000B44310
:10149000000048450EB54FF07E51884200DA0846FC
:1014A000FEF7B6FE0D49FEF7EBFE0D49FEF7B6FE60
:1014B00010F1FF4F00D30020FFF7ECFE00210122C6
:1014C000CDE9012100903C2364220220FEF7D0FFE9
:1014D000BDE80E403220FFF793BE00000000B44389
:1014E0000000484510B51449002812D0012821D128
:1014F0004868C0EBC00000F5FA70FEF7FFFEFEF78B
:101500000BFF80B2FFF7D4F8BDE810400A20FFF7C8
:1015100077BE0868C0EBC00000F5FA70FEF7EEFE7B
:10152000FEF7FAFE80B2FFF7C3F8BDE810400A20CC
:10153000FFF766BE10BD00002C00002070B5044609
:101540001C4D022C0ED12869C0EBC00000F5FA70CA
:10155000FEF7D4FEFEF7E0FE80B2FFF7AFF80A20F8
:10156000FFF74EFE012C12D0002C21D1A868C0EB51
:10157000C00000F5FA70FEF7C1FEFEF7CDFE80B2A6
:10158000FFF79CF8BDE870400A20FFF739BEE86815
:10159000C0EBC00000F5FA70FEF7B0FEFEF7BCFE2F
:1015A00080B2FFF78BF8BDE870400A20FFF728BE35
:1015B00070BD00002C00002010B5064C01462046EE
:1015C000FFF7CEFC80212046FFF726FC0028F9D04B
:1015D00010BD00000050004038B504460D46002004
:1015E0000090009008E09DF80000205CFFF7E4FF09
:1015F0009DF80000401C00909DF80000A842F2D326
:1016000038BD00002416000800000020780000000B
:10161000141100089C16000878000020F80500004E
:1016200024110008FFFF0000000080BF000080BF01
:1016300000000000000000000000000000000000AA
:10164000000000000000000000000000000000009A
:1016500000000000A70000006400000091000000EE
:101660005000000000000041000070420000020431
:10167000060800000000010203040102030406073B
:101680000809000000A24A04000000000000000059
:0C16900001020304060708090000000026
:0400000508000149A5
:00000001FF
