:020000040800F2
:10000000104E0020610200086B26000899240008A9
:1000100069260008650700085D2F00080000000041
:10002000000000000000000000000000A101000826
:100030005508000800000000FD010008392A0008EA
:100040007B0200087B0200087B0200087B0200089C
:100050007B0200087B0200087B0200087B0200088C
:100060007B0200087B0200087B0200087B0200087C
:100070007B0200087B0200087B0200087B0200086C
:100080007B0200087B0200087B0200087B0200085C
:10009000690700087B0200087B0200087B02000859
:1000A0007B020008092B00087B0200087B02000885
:1000B0007B0200087B0200087B0200087B0200082C
:1000C0007B0200087B0200087B0200087B0200081C
:1000D0007B020008452F00087B0200087B02000815
:1000E0007B0200087B0200087B0200087B020008FC
:1000F0007B0200087B0200087B0200087B020008EC
:100100007B0200087B0200087B0200087B020008DB
:100110007B0200087B0200087B0200087B020008CB
:100120007B0200087B0200087B0200087B020008BB
:100130007B0200087B0200087B0200087B020008AB
:10014000750700087B0200087B0200087B0200089C
:100150007B0200087B0200087B020008512F000888
:100160007B0200087B0200087B0200087B0200087B
:100170007B0200087B0200087B02000800000000F0
:100180007B0200087B020008DFF810D000F0D8FAEC
:1001900000480047CD300008AFF30080104E00202B
:1001A0002C4B19680868B0E8F04F80F30988BFF35A
:1001B0006F8F4FF0000080F311887047000000003F
:1001C00008480068006880F308884FF0000080F35A
:1001D000148862B661B6BFF34F8FBFF36F8F00DF35
:1001E00000BF00BF08ED00E0DFF80C00016841F43B
:1001F00070010160704700BF88ED00E0EFF30980F7
:10020000BFF36F8F134B1A681EF0100F08BF20ED5D
:10021000108A20E9F04F106009B44FF0500080F3CD
:100220001188BFF34F8FBFF36F8F04F063F94FF066
:10023000000080F3118809BC19680868B0E8F04F25
:100240001EF0100F08BFB0EC108A80F30988BFF3CE
:100250006F8F70473C000020EFF30580704700006F
:100260000648804706480047FEE7FEE7FEE7FEE750
:10027000FEE7FEE7FEE7FEE7FEE7FEE7F92A0008F5
:10028000890100082DE9F05F0546002092469B4653
:1002900088460646814640241BE02846414647469C
:1002A000224600F0A8F953465A46C01A914110D38D
:1002B00011461846224600F08FF92D1A67EB010807
:1002C0004F4622460120002100F086F917EB000975
:1002D0004E41201EA4F10104DFDC484631462A4687
:1002E0004346BDE8F09F40EA01039B0703D009E0C5
:1002F00008C9121F08C0042AFAD203E011F8013B12
:1003000000F8013B521EF9D27047D2B201E000F86A
:10031000012B491EFBD270470022F6E710B51346A9
:100320000A4604461946FFF7F0FF204610BD2DE9A6
:10033000FE4F81EA030404F0004421F000410094E0
:100340004FF0000B23F0004350EA01045ED052EA64
:1003500003045BD0C3F30A54C1F30A552C44A4F23E
:10036000F3340194A0FB0254C1F3130141F4801152
:10037000C3F3130343F4801301FB024400FB034E59
:10038000840A970A44EA815447EA8357A4FB076822
:1003900002958D0A05FB07854FEA932C04FB0C544C
:1003A0002705029D4FEA065847EA1637B5EB0805C0
:1003B0006EEB070C870E920E47EA811742EA831212
:1003C000A7FB0201B6EB0B0164EB00042B0D43EA23
:1003D0000C335E1844EB1C50DA465146E7FB020131
:1003E000C5F313044FEA0B3343EA14534FEA0432C4
:1003F000019C43EA0603A4F10C040294009CCDE99D
:1004000000B400F04EF903B0BDE8F08F00200146C3
:10041000F9E72DE9F04D81EA030404F0004B21F0E7
:10042000004514464FF0000A23F0004150EA05024F
:1004300020D054EA01021DD0C5F30A570246C5F385
:100440001303C1F31300C1F30A5640F4801543F4BB
:100450008013A7EB0608101BD64608F2FD3873EB95
:10046000050002D308F1010801E092185B41B8F1E0
:10047000000F03DA00200146BDE8F08D00204FF4A4
:100480008011064684460EE0171B73EB050705D363
:10049000121B63EB050306434CEA010C49084FEAC3
:1004A000300092185B4150EA0107EDD152EA030097
:1004B00012D082EA040083EA0501084305D0101B2C
:1004C000AB4106D20122002306E000224FF0004398
:1004D00002E06FF0010253101AEB06004CEB0851DA
:1004E00010EB0A0041EB0B01BDE8F04D00F0CAB87B
:1004F0003EB5CA17CB0F002450405140C01861418F
:10050000DA0740F233430094CDE901232246234623
:1005100000F0C7F803B030BD00F0004230F00040FA
:100520000AD0C10D01F56071C0F3160042EA015115
:10053000C208400711437047002001467047000081
:1005400030B5041E71F1000404DB4FF0004440425A
:1005500064EB0101141E73F1000405DB1C464FF02F
:100560000043524263EB04038B4208BF824230BD1A
:1005700030B5041E71F1000404DB4FF0004440422A
:1005800064EB0101141E73F1000405DB1C464FF0FF
:100590000043524263EB0403994208BF904230BDCE
:1005A00001F0004330B421F0004150EA010206D0CE
:1005B0000A0DA2F56072C1F31301002A02DC30BCFF
:1005C00000207047440F44EAC104C100E01830BC69
:1005D00000EBC25000F01FB8202A04DB203A00FADA
:1005E00002F1002070479140C2F1200320FA03F38A
:1005F000194390407047202A04DB203A21FA02F088
:100600000021704721FA02F3D040C2F1200291404C
:100610000843194670470029A8BF7047401C49008D
:1006200008BF20F00100704710B4B0FA80FC00FA57
:100630000CF050EA010404BF10BC704749B1CCF182
:10064000200421FA04F411FA0CF118BF012121430E
:100650000843A3EB0C01CB1D4FEA00614FEA1020C9
:1006600042BF002010BC704700EBC350104400296B
:10067000A4BF10BC7047401C490008BF20F0010017
:1006800010BC704710B5141E73F1000408DA401C4A
:1006900041F1000192185B411A4301D120F00100A1
:1006A00010BD2DE9F04D92469B4611B1B1FA81F291
:1006B00002E0B0FA80F220329046FFF78DFF044648
:1006C0000F4640EA0A0041EA0B0153465A460843E6
:1006D00013D0114653EA010019D0C8F14002504628
:1006E000FFF789FF05460E46504659464246FFF73A
:1006F00073FF084305D0012004E020463946BDE8D9
:10070000F08D0020054346EAE0762C4337430A98F3
:100710006305E40AA0EB08000022FD0A44EA4754FE
:100720000A3002D500200146E9E7010510196941A8
:10073000DDE9084500196941BDE8F04DA2E7000078
:10074000064C074D06E0E06840F0010394E807001E
:1007500098471034AC42F6D3FFF71AFD6C500008EE
:100760008C500008FEE70000014800F00DBA0000C0
:10077000CC070020014800F007BA0000F407002071
:1007800038B50E4C4FF4007525600025A560E56076
:10079000082525610A4C050A25706070080AA070BA
:1007A000E170100A20716271180AA071E3716B4642
:1007B00022460249034800F062F838BDC8470020CD
:1007C000C0000020CC07002038B50E4C40F2FF15C9
:1007D00025600025A560E560082525610A4C050A0D
:1007E00025706070080AA070E170100A20716271B3
:1007F000180AA071E3716B4622460249034800F0D3
:100800003EF838BDB0470020B8000020CC070020DB
:1008100030B500210B4C9FED0C0A0C4DDFED0C0A9E
:1008200000EB81021368A34201DD82ED000A136828
:10083000AB4201D9C2ED000A491CC9B20429EFD369
:1008400030BD000000401C4600401C4600401CC655
:1008500000401CC6704772B6FEE790F82020012ABF
:1008600007D0022A05D0416A41F48021416201206B
:100870007047006842690A43426100207047F0B542
:1008800090F820500468A468012D07D0022D05D0EF
:10089000416A41F4802141620120F0BD04F080658D
:1008A00004F00066354301D1E5005BD5C4F3016473
:1008B000022C05D9416A41F4000141620120F0BDDA
:1008C0000125A5401D608B684FF4C0759BB1CE68B3
:1008D00005EB041733434E6843EAC6030668F35139
:1008E0004FF4C273076803EB04130E69FE50097DD1
:1008F000012909D00DE00E88CB6805EB041743EA07
:1009000046530668F351EBE70168CE5846F480760B
:10091000CE501179D379567941EA036193791B045A
:1009200043EA062319434FF4C676036806EB041620
:1009300099511178D37841EA0361937852781B0476
:1009400043EA022211434FF4C473026803EB041319
:10095000D150006805EB0411425842F001024250A8
:100960000020F0BD416A41F4001141620120F0BD58
:1009700010B590F82020012A07D0022A05D0416A3C
:1009800041F480214162012010BD3C4800F5007017
:10099000026842F001020260026822F47C520260A6
:1009A00002684B6A42EA032202600A7D02F01F03DA
:1009B00001229A40C3699343C361A0F50070CB69DB
:1009C000B3B9D0F80C329343C0F80C328C894B6821
:1009D00064F31F434C6900EBC404C4F840320C8933
:1009E0000B6864F31F434C6900EBC404C4F8443241
:1009F000CB69012B16D1D0F80C321343C0F80C325E
:100A00000C884B6864F31F434C6900EBC404C4F8C2
:100A100040320C89CB6864F31F434C6900EBC4047B
:100A2000C4F844328B697BB1D0F804321343C0F868
:100A300004320B6973B1D0F814321343C0F8143286
:100A4000096A01290CD010E0D0F804329343C0F8B1
:100A50000432EEE7D0F814329343C0F81432EFE7D3
:100A6000D0F81C121143C0F81C12D0F8001221F06B
:100A70000101C0F80012002010BD00000064004019
:100A8000704730B590F82040012C07D0022C05D0DB
:100A9000416A41F480214162012030BD21B10468E6
:100AA0002469A4075FD003E00468E468A40754D075
:100AB0004FF4D874056804EB01142D5905F00405B2
:100AC0009560F5B305682D59ED08556005682C59FA
:100AD00004F00204D4604FF4DA74056804EB0114E6
:100AE0002D5905F00F05156105682D59C5F307252A
:100AF000956105682C59240C54614FF4DC7204682C
:100B000002EB0112A4581C700468A458240A5C70FB
:100B10000468A458240C9C700468A258120EDA7061
:100B20004FF4DE72046802EB0112A4581C710468D1
:100B3000A458240A5C710468A458240C9C710468AD
:100B400000E016E0A258120EDA71B9B1006801692E
:100B500041F020010161002030BD416A41F40011E3
:100B60004162012030BD416A41F40011416201201F
:100B700030BD05682D596D0D1560A7E70068C16887
:100B800041F02001C160E6E72DE9F05F0546002451
:100B900028684669D0F804908768D0F80CA0D0F88F
:100BA00010B0D0F81880F10748D0F90714D001210F
:100BB0008160B80703D5284600F0DEFA0CE078071C
:100BC00002D54FF4006407E0380702D54FF4805493
:100BD00002E0284600F0CFFAF80516D529684FF450
:100BE00080708860B80503D5284600F0C7FA0CE08D
:100BF000780502D544F4005407E0380502D544F4E2
:100C0000804402E0284600F0B8FAF80316D52968B7
:100C10004FF480308860B80303D5284600F0B0FA5E
:100C20000CE0780302D544F4004407E0380302D511
:100C300044F4803402E0284600F0A1FA300707D5DA
:100C40005FEACA6004D544F4007429681020C860C3
:100C500070074FF0080707D55FEA0A7004D52868C7
:100C6000C760284600F0B8F9B00706D52868C06804
:100C7000800702D0284600F0B1F9700607D55FEA78
:100C8000CB6004D544F48064296810200861B00664
:100C900007D55FEA0B7004D528680761284600F085
:100CA0003BFAF00606D528680069800702D028467E
:100CB00000F033FAB00308D55FEAC96005D52968AA
:100CC00010204860284600F029FAF00307D55FEAB3
:100CD000097004D528684760284600F052FA3004AD
:100CE00046D55FEA497040D5F00504D55FEAC87083
:100CF00001D044F00104B00504D55FEA887001D545
:100D000044F00204700504D55FEA487001D544F050
:100D10000404300529D518F0700F26D008F07000B3
:100D2000402815D006DC102809D020280AD0302809
:100D300016D10AE050280ED0602811D10EE044F000
:100D400008040DE044F010040AE044F0200407E039
:100D500044F0400404E044F0800401E044F4807472
:100D60002868816921F07001816129680420486048
:100D7000002C05D0686A204368622846FFF780FE91
:100D8000BDE8F09F70B50446002C03D094F8200015
:100D900010B104E0012070BD204600F09DF82068ED
:100DA000016841F00101016000F02EFB05460526B7
:100DB0000CE000F029FB401B0A2807D9606A40F4C8
:100DC0000030606284F82060012070BD20684068B7
:100DD000C007EED02068016821F00201016000F038
:100DE00013FB05460CE000F00FFB401B0A2807D957
:100DF000606A40F40030606284F82060012070BDB9
:100E0000206840688007EED4207E01283FD020680B
:100E1000016821F080010160607E01283DD02068DA
:100E2000016821F040010160A07E01283BD02068CC
:100E3000016821F020010160E07E012839D020689E
:100E4000016841F010010160207F012837D020683F
:100E5000016821F008010160607F012835D0206819
:100E6000016821F004010160D4E902010843D4E9DA
:100E70000412114308436168491E08432168C86190
:100E800000206062012084F82000002070BD2068EE
:100E9000016841F080010160BEE72068016841F00F
:100EA00040010160C0E72068016841F02001016055
:100EB000C2E72068016821F010010160C4E72068E2
:100EC000016841F008010160C6E72068016841F04F
:100ED00004010160C8E700002DE9F04186B0044636
:100EE000142101A8FFF718FA364B374ADFF8D080F3
:100EF00018682168344C03260227401C1032002554
:100F00004FF0090C414527D11860012807D110681E
:100F100040F000701060106800F0007000902068D1
:100F200040F008002060206800F008000090019662
:100F3000029703950496CDF814C001A9234800F048
:100F40007BF900220521142000F0F6FA142000F0AD
:100F5000E5FA06B0BDE8F081DFF874804145F8D1CC
:100F6000116841F080611160116801F080610091A9
:100F70001860012807D1106840F0007010601068F8
:100F800000F000700090206840F0020020602068AF
:100F900000F00200009060200190029703950496F3
:100FA000CDF814C001A90B4800F046F90022052134
:100FB000402000F0C1FA402000F0B0FAC9E700007C
:100FC000006400402800002030380240000C02403D
:100FD00000680040000402407047000000B589B07E
:100FE0006B4602AA0021FFF74CFD02994948A1F285
:100FF000012105291ED2DFE801F0031F3A557100D7
:10100000018841809DF801109DF8002041EA0221ED
:1010100001809DF803109DF8022041EA02218180A1
:101020009DF805109DF8042041EA0221C1800020AE
:1010300002F05CFF09B000BD018B41839DF80110F7
:101040009DF8002041EA022101839DF803109DF8DC
:10105000022041EA022181839DF805109DF80420B9
:1010600041EA0221C183012002F040FFE2E7018E44
:1010700041869DF801109DF8002041EA0221018679
:101080009DF803109DF8022041EA022181869DF817
:1010900005109DF8042041EA0221C186022002F0D9
:1010A00025FFC7E730F8481F41809DF801109DF8E3
:1010B000002041EA022101809DF803109DF80220E2
:1010C00041EA022181809DF805109DF8042041EA43
:1010D0000221C180032002F009FFABE730F8601F56
:1010E00041809DF801109DF8002041EA0221018015
:1010F0009DF803109DF8022041EA022181809DF8AD
:1011000005109DF8042041EA0221C180042002F06C
:10111000EDFE8FE70847002070477047704770B5B5
:10112000044694F82000012805D0606A40F40020AD
:101130006062012070BD022084F8200020680168F0
:1011400021F00101016000F05FF905460DE000F0BB
:101150005BF9401B0A2808D9606A40F400306062DD
:10116000052084F82000012070BD20684068C00779
:10117000EDD1606270BD704770477047704770472F
:10118000704770472DE9F0410446A76D00F03CF927
:10119000054694F835000026022806D080206065B8
:1011A00084F834600120BDE8F0812068016821F0F6
:1011B000160101602068416921F080014161206CC5
:1011C00008B9A06C20B12068016821F00801016015
:1011D0002068016821F0010101600BE000F014F9C2
:1011E000401B052806D9202034342062032060707B
:1011F0002670D8E720680068C007EFD134343F205C
:1012000094F828108840B860012060702670002093
:10121000C9E790F83510022903D0802141650120EB
:101220007047052180F835100068016821F0010140
:1012300001600020704700002DE9F84F0022DFF820
:101240009C914FF0010803274FF00F0C09F1040A9D
:10125000A9F1040B08FA02F50B682B40AB426ED1E2
:101260000C7904F00304012C01D0022C15D18668FE
:10127000540007FA04FE26EA0E06D1F80CE00EFA36
:1012800004FE4EEA060EC0F808E04468AC430D794F
:10129000C5F300159540254345600C79E443A40748
:1012A00008D0C568540007FA04F6B5438E68A64016
:1012B0002E43C6600C7904F00304022C11D1D4082B
:1012C00000EB8406356A5407E40E0CFA04FE25EAA6
:1012D0000E05D1F810E00EFA04FE4EEA050EC6F82F
:1012E00020E00568540007FA04F6B5430E7906F0CD
:1012F0000306A6402E4306604C6814F4403F67D0B6
:10130000374C256845F480452560246804F4804402
:101310000094344C22F003052E19D6F8085894078F
:101320004FEA147E0CFA0EF4A5432F4CA04201D1D3
:10133000002424E02D4CA04202D101241FE047E00C
:101340002B4CA04201D1022419E02A4CA04201D129
:10135000032414E0284CA04201D104240FE0274CC0
:10136000A04201D105240AE0254CA04201D1062467
:1013700005E0244CA04201D1072400E0082404FA2F
:101380000EF42C43C6F80848D9F800409C434D6839
:10139000ED0200D51C43C9F80040DAF800409C4338
:1013A0004D68AD0200D51C43CAF80040DBF8004090
:1013B0009C434D68AD0300D51C43CBF80040074D5E
:1013C000083D2C689C434E68F60300D51C432C60F6
:1013D000521C102AFFF43EAFBDE8F88F083C0140D4
:1013E0004438024000300140000002400004024046
:1013F00000080240000C02400010024000140240AD
:1014000000180240001C024001488068704700003C
:101410002C000020024881680278114481607047E6
:101420002C00002010B50B48016841F400710160E8
:10143000016841F480610160016841F480710160DC
:10144000032000F099F80F2000F006F800F04AF8A9
:10145000002010BD003C024030B587B00546002496
:101460001B48016841F001010160006800F00100C3
:10147000009001A902A800F037F900F069F94000D6
:101480001449B0FBF1F1491E1448134A026040F2BE
:10149000E732C260416004618460846100F080FBD7
:1014A000044694B90D4800F0A1FB04466CB919201C
:1014B00000F034F8102D07D200222946192000F040
:1014C0003BF80748056000E0012407B0204630BD26
:1014D0004438024040420F0000000140A4080020B0
:1014E0003000002082B00C48016841F48041016066
:1014F000006800F4804001900748001F016841F037
:1015000080510160006800F08050019000220F219E
:10151000901E02B000F010B844380240002809DBE9
:1015200000F01F02012191404009800000F1E020FD
:10153000C0F8001170470000F0B40D460D4B1B6859
:10154000C3F30223C3F10704042C00D90424191D9A
:10155000072901D2002300E0DB1E012606FA04F170
:10156000491E294099409E40761E16403143F0BCEA
:1015700001F0F5BC0CED00E000F00701054A106831
:101580004FF6FF03184040EA01200349084310606A
:10159000704700000CED00E00000FA052DE9F0476F
:1015A00004460D46002C13D0DFF82891D9F800002E
:1015B000EFB200F00700A8420CD289F80070D9F809
:1015C000000000F00700A84204D00120BDE8F08729
:1015D0000120FBE72068404E810712D5400703D564
:1015E000306840F4E05030602078000703D5306860
:1015F00040F4604030603068A16820F0F00008439B
:1016000030602078C00731D033496068083901283C
:1016100008D002280BD0032809D0096889070BD409
:101620000120D3E70968890306D40120CEE70968C1
:10163000890101D40120C9E7316821F00301014388
:101640003160FFF7E1FE804641F2883A07E0FFF79C
:10165000DBFEA0EB0800504501D90320B6E7306857
:10166000616800F00C00B0EB810FF0D1D9F80000F8
:1016700000F00700A84209D989F80070D9F80000E5
:1016800000F00700A84201D001209FE72078400722
:1016900005D53068E16820F4E050084330602078D8
:1016A000000706D53068216920F4604040EAC10097
:1016B000306000F05DF83168084AC1F30311515CF5
:1016C000C8400749086007480068FFF7C5FE0020CA
:1016D0007CE70000003C024008380240F44F00085C
:1016E00038000020300000200F2202600B4A1368EF
:1016F00003F003034360136803F0F003836013688F
:1017000003F4E053C360126802F46042D20802613D
:101710000348006800F0070008607047083802407E
:10172000003C02400148006870470000380000207B
:1017300000B5FFF7F7FF04490968044AC1F38221A5
:10174000515CC84000BD0000083802400450000849
:1017500000B5FFF7E7FF04490968044AC1F34231C5
:10176000515CC84000BD0000083802400450000829
:1017700010B51748006810F00C01164816D0164B2B
:10178000042912D0082911D1114C241F216801F01D
:101790003F02216849020AD52068C0F38810A0FBE7
:1017A00003010023FEF76EFD09E0184610BD216815
:1017B0000023C1F38811A1FB0001FEF763FD21683E
:1017C000C1F30141491C4900B0FBF1F010BD00001C
:1017D000083802400024F40040787D012DE9F84FDC
:1017E0000446002C13D02078DFF8A083C007A8F1AE
:1017F000040556D008F104000168C1F381010129F4
:101800000CD00068C0F38100022803D00DE0012055
:10181000BDE8F88FD8F80000400206D5286880039C
:101820003FD5606870BB0120F2E76068B0F5803F8B
:1018300010D0B0F5A02F12D0286820F48030286096
:10184000286820F4802028606068E0B1FFF7DCFDA4
:10185000064614E0286840F480302860F4E72868E1
:1018600040F480202860286840F480302860EBE74E
:10187000FFF7CAFD801B642801D90320C8E7286848
:101880008003F5D50DE0FFF7BFFD064606E0FFF744
:10189000BBFD801B642801D90320B9E728688003B9
:1018A000F5D42078BA4F80074FF0000948D5B748E3
:1018B000001D016811F00C0F08D00068C0F3810012
:1018C000022813D1D8F8000040020FD428688007FE
:1018D00004D5E068012801D0012099E72868216932
:1018E00020F0F80040EAC100286029E0E068B8B1C3
:1018F00001203860FFF788FD064606E0FFF784FD0B
:10190000801B022801D9032082E728688007F5D5CB
:101910002868216920F0F80040EAC10028600FE043
:10192000C7F80090FFF770FD064606E0FFF76CFD74
:10193000801B022801D903206AE728688007F5D4B4
:101940002078000729D5DFF844A2924861690AF19E
:10195000700A89B101210160FFF756FD064606E0D5
:10196000FFF752FD801B022801D9032050E7DAF867
:1019700000008007F4D510E0C0F80090FFF744FDA8
:10198000064606E0FFF740FD801B022801D9032030
:101990003EE7DAF800008007F4D42078400778D5D5
:1019A0004FF0000A79483C300068C0000BD47748FB
:1019B0003C30016841F080510160006800F08050C7
:1019C00000904FF0010ADFF8D0B1DBF80000C0054D
:1019D00014D4DBF8000040F48070CBF80000FFF76F
:1019E00013FD064606E0FFF70FFD801B022801D914
:1019F00003200DE7DBF80000C005F4D5634EA068B6
:101A00006C3601280FD0052812D0306820F0010074
:101A10003060306820F004003060A068F8B1FFF753
:101A2000F3FC834617E0306840F001003060F4E7D3
:101A3000306840F004003060306840F001003060F1
:101A4000EBE7FFF7E1FCA0EB0B0141F288308142AC
:101A500001D90320DCE630688007F2D510E0FFF7FB
:101A6000D3FC834609E0FFF7CFFCA0EB0B0141F26A
:101A70008830814201D90320CAE630688007F2D459
:101A8000BAF1010F05D141483C30016821F0805185
:101A90000160A069C0B33D49091D09684FF0FF36D8
:101AA000C1F38101022946D0022805D0C7F8609011
:101AB000FFF7AAFC04463AE0C7F86090FFF7A4FCE1
:101AC000814607E0FFF7A0FCA0EB0900022801D93E
:101AD00003209DE628688001F4D4D4E90701084377
:101AE000616AA26A890106EB520241EA0241084397
:101AF00094F82C1040EA0160C8F800000120386614
:101B0000FFF782FC044607E03DE0FFF77DFC001B89
:101B1000022801D903207BE628688001F5D532E050
:101B2000FFF772FC001B022801D9032070E6286829
:101B30008001F5D427E0012823D0D8F80000E2691D
:101B400000F4800191421AD1226A00F03F019142D3
:101B500015D147F6C071626A0140B1EB821F0ED108
:101B6000A26A00F4403106EB5202B1EB024F06D1FB
:101B700094F82C1000F07060B0EB016F03D00120DE
:101B800046E6012044E6002042E600000438024018
:101B900000004742800E4742007000407047704787
:101BA00010B50446002C03D094F83D0010B107E0B6
:101BB000012010BD002084F83C00204600F015F8FC
:101BC000022084F83D00211D206800F0A3FF0120C1
:101BD0003D3460726070A070E07020716071A0711F
:101BE000E07120722070002010BD704790F83D1009
:101BF000012901D001207047022180F83D100168C1
:101C0000CA6842F00102CA6000681449884214D0D0
:101C1000B0F1804F11D0124988420ED0114988424C
:101C20000BD01149884208D01049884205D010498C
:101C3000884202D00F49884209D1816801F007012A
:101C4000062908D0016841F00101016003E0016844
:101C500041F00101016000207047000000000140D8
:101C60000004004000080040000C00400004014057
:101C70000040014000180040704770B504462068DD
:101C800001694FF00005C943890716D4C168C943EB
:101C9000890712D4E91E016101202077206880693C
:101CA000800703D02046FFF7E7FF05E0204600F05D
:101CB0009BF8204600F099F8257720680169C94310
:101CC000490718D4C168C943490714D46FF0040107
:101CD0000161022020772068806910F4407F03D0E2
:101CE0002046FFF7C9FF05E0204600F07DF82046BA
:101CF00000F07BF8257720680169C943090717D4EC
:101D0000C168C943090713D46FF0080101610420B9
:101D100020772068C069800703D02046FFF7ACFF1A
:101D200005E0204600F060F8204600F05EF82577D8
:101D300020680169C943C90618D4C168C943C906E6
:101D400014D46FF010010161082020772068C06969
:101D500010F4407F03D02046FFF78EFF05E02046B9
:101D600000F042F8204600F040F82577206801692D
:101D7000C943C90708D1C168C943C90704D1891E2D
:101D80000161204600F032F820680169C943090664
:101D900009D4C168C943090605D46FF08001016107
:101DA0002046FFF7FBFE20680169C943490609D4B4
:101DB000C168C943490605D46FF04001016120465E
:101DC00000F01EF820680169C94389060BD4C16878
:101DD000C943890607D46FF0200101612046BDE8A0
:101DE0007040FFF7DCBE70BD704770470068034964
:101DF000884201D1FFF70EBB704700000000014090
:101E00007047704770470000F8B5044622681068B4
:101E1000D168536900F00F06002E08D1850606D55B
:101E20008D0604D52046BDE8F84000F015BF00251A
:101E3000002E66D003F0010601F49077374360D09E
:101E4000C20705D0CA0503D5226C42F00102226404
:101E5000420705D5DA0703D0226C42F00202226461
:101E6000820705D5DA0703D0226C42F0040222640F
:101E7000020707D501F02002324303D0226C42F062
:101E800008022264226C002A31D0800604D588061C
:101E900002D5204600F0E0FE20684069C0F38010C3
:101EA000216C090700D438B3204600F0A1FE206859
:101EB000406940061CD52068143050E8001F21F00E
:101EC000400140E80012002AF5D1A06B60B15749EB
:101ED0000165A06BFFF79DF9002808D0A06B016D8C
:101EE00001B0BDE8F04008472046FFF78BFFF8BD82
:101EF0002046FFF787FFF8BD2046FFF783FF2564E4
:101F0000F8BD236B012B7ED1C3067CD5CB067AD5D9
:101F100010685068009050694FF02003400643D588
:101F2000A16B0868406880B20028E9D0A28D824287
:101F3000E6D9E085C869B0F5807F2DD020680C30E7
:101F400050E8001F21F4807140E80012002AF5D10A
:101F50002068143050E8001F21F0010140E8001211
:101F6000002AF5D12068143050E8001F21F040010C
:101F700040E80012002AF5D184F83E30256320683D
:101F80000C3050E8001F21F0100140E80012002A38
:101F9000F5D1A06BFFF7F6F8A08DE18D401A81B264
:101FA0002046FFF72EFFF8BDA08DE18D401A81B2CB
:101FB000E08D0028F7D00029F5D020680C3050E8DB
:101FC000002F22F4907240E80026002EF5D1206800
:101FD000143050E8002F22F0010240E80026002EC5
:101FE000F5D184F83E30256320680C3050E8002F8E
:101FF00022F0100240E80023002BF5D12046FFF725
:1020000000FFF8BDFFE7020606D50A0604D5204604
:10201000BDE8F84000F02CBF4006F2D54806F0D5E8
:102020002046BDE8F84000F00ABE0000E12B0008A1
:1020300070B50446002C04D094F83D00002510B182
:1020400006E0012070BD84F83C50204600F022F8E4
:10205000242084F83D002068C16821F40051C1604B
:10206000204600F05DFE2068016921F49041016185
:102070002068416921F02A0141612068C16841F46A
:102080000051C1602564202084F83D0084F83E00A2
:10209000002070BDF0B587B00446142102A8FEF7F9
:1020A0003BF93548334B21680024334A1438022564
:1020B0000326994236D1116841F010011160116870
:1020C00001F010010191016841F002010160016815
:1020D00001F002010191016841F001010160006815
:1020E00000F0010001908020029003950494059671
:1020F0000727069702A92148FFF79EF828020290B9
:10210000039504940596069702A91D48FFF794F8D5
:10211000002205212520FFF70FFA2520FFF7FEF901
:1021200007B0F0BD174B9942FAD1116841F0200178
:102130001160116801F020010191016841F0400136
:102140000160006800F0400001904FF4844002906C
:102150000395049405960820069002A90A48FFF703
:102160006BF8002205214720FFF7E6F94720FFF72B
:10217000D5F9D5E700100140443802400004024080
:1021800000000240001401400018024090F83E3068
:10219000202B01D00220704759B152B190F83C3049
:1021A000012B08D0012380F83C300023036300F0AA
:1021B00041BE0120704702207047000070B50646FE
:1021C000774930680024774D884241D16878764A53
:1021D000411CEB78C9B269701354012904D11078FD
:1021E000552801D014706C706878022803D150789B
:1021F000532800D06C7068780B2823D100212B78ED
:10220000505C03442B70491CC9B20A29F7D3907A59
:102210002978884214D19079E880D179298140EADF
:10222000012000EE100A6148B8EE400ADFED600AB6
:1022300020EE200ADFED5F0A20EE200A80ED000A82
:102240006C702C7057490122C91C5B48FFF79EFF38
:102250005A493068884271D1A878534E411C2A7976
:10226000C9B20B36A9703254012904D13078FF2845
:1022700001D03470AC70A878032803D1707810288E
:1022800000D1AC70A8780A287DD17078012802D0DE
:10229000022854D076E0B078012801D040B371E034
:1022A000012000F065FF3079F17840EA012001B2A9
:1022B000B079727940EA022002B2307AF37940EACA
:1022C0000320B5F90A3003FA80F000B2688100EE0D
:1022D000100AF7EE001AB8EEC01A00EE102AF8EE57
:1022E000C00A00EE101AB8EEC00A01F0E7F849E0A3
:1022F000002000F03DFF3079F17840EA012000B283
:10230000B179727941EA022109B2327AF37942EA6B
:10231000032212B200EE100A2948B8EEC00A80ED7E
:10232000000A00EE101AB8EEC00A80ED010A00EEB5
:10233000102AB8EEC00A80ED020A23E02FE0B07840
:1023400001281FD1F078317941EA002000B200EE77
:10235000100A1C48B8EEC00A80ED000A10EE101AF0
:10236000194A914205DD9FED190A80ED000A09E046
:1023700009E0B5EEC00AF1EE10FA03D29FED140A9F
:1023800080ED000AAC70A8780A2800D9AC70BDE8CE
:10239000704004490122091D0E48FFF7F7BE70BDC9
:1023A00000100140000000200C010020DC00002093
:1023B00000000038000034431C08002000140140D5
:1023C000E0470020E00000200000FA430000FA434C
:1023D00000000000600800202DE9F84304460E4686
:1023E00015461F4694F83D00202802D00220BDE883
:1023F000F883C6B1BDB194F83C00012815D0012086
:1024000084F83C004FF00009C4F84090212084F883
:102410003D00FEF7F9FF8046A584E584A068B0F58D
:10242000805F04D005E00120E1E70220DFE72069BA
:1024300020B13546002684F83C9013E00025FAE7E9
:102440004346002280212046009700F040FD08B15D
:102450000320CCE79DB1216815F8010B4860E08CA2
:10246000401EE084E08C0028EAD14346002240214F
:102470002046009700F02BFD40B10320B7E736F867
:10248000020B2168C0F308004860E8E7202084F8C8
:102490003D000020ABE77047FEE7000010B50F4895
:1024A0000D4901600321416000218160C1604FF44A
:1024B000102202614FF4001242610176417681766A
:1024C000C17601774177FEF75DFC002803D0BDE8B7
:1024D0001040FEF7C0B910BD00640040CC070020DA
:1024E00010B50F480D490160032141600021816052
:1024F000C1604FF4102202614FF400124261017674
:1025000041768176C17601774177FEF73BFC002862
:1025100003D0BDE81040FEF79EB910BD0068004032
:10252000F407002010B59CB01C22164915A8FDF731
:10253000DAFE002115A800F0F8FF134CE0601C2221
:1025400010491C310EA8FDF7CEFE00210EA800F0A8
:10255000ECFF20601C220B49383107A8FDF7C3FEB1
:10256000002107A800F0E1FFA0601C2205495431BA
:102570006846FDF7B8FE0021684600F0D6FF6060AF
:102580001CB010BD844F00081800002008B5194881
:10259000016841F002010160016801F0020100914F
:1025A000016841F040010160016801F040010091C3
:1025B000016841F001010160016801F00101009131
:1025C000016841F008010160016801F00801009113
:1025D000016841F004010160016801F0040100910B
:1025E000016841F080010160006800F08000009007
:1025F00008BD00003038024010B50C480A4901609F
:102600004FF4E131416000218160C16001610C2221
:1026100042618161C161FFF70BFD002803D0BDE875
:102620001040FEF718B910BD001001401C08002032
:1026300010B50C480A4901604FF4E13141600021B6
:102640008160C16001610C2242618161C161FFF75B
:10265000EFFC002803D0BDE81040FEF7FCB810BD29
:102660000014014060080020FEE7FEE790ED071A25
:1026700080ED081A90ED061A80ED071AC0ED000AE9
:1026800080ED010A70EEC00AC0ED060A90ED050A61
:1026900070EE201AC0ED051A90ED020A90ED032AA3
:1026A00020EE200A70EEC10A90ED041A02EE210A13
:1026B00001EE200A80ED090A704790ED071A80EDBF
:1026C000081A90ED061A80ED071AC0ED000A80ED99
:1026D000010A70EEC00AC0ED060A90ED050A70EE20
:1026E000201AC0ED051A90ED020A90ED032A20EEA3
:1026F000200A70EEC10A90ED041A02EE210A01EEE2
:10270000200A80ED090A704710B504462DED048BB0
:10271000D4ED071A9FED4C2A30EEC09AF5EEC00AB0
:1027200030EE821A71EE409A94ED061AF1EE10FA2C
:102730002BD110EE100A45490844B0F5341F01D2E0
:1027400030EE420AC4ED081A84ED071AC4ED000AFF
:1027500084ED010A30EEC00A84ED060AD4ED050AC4
:1027600070EE800AC4ED050AD4ED021A94ED032A36
:1027700061EE801A30EE410A42EE201AD4ED040ACE
:1027800040EE801AC4ED091A49E0C4ED081A84ED40
:10279000071AC4ED000A84ED010A19EE900AFDF74C
:1027A000BBFE0A46014608EE101A22F0004218EE5F
:1027B000101A19EE100A42EC181BFDF7ADFE0A467E
:1027C000014600EE101A22F0004210EE101A42EC00
:1027D000101B53EC182B51EC100BFDF7C9FE02D265
:1027E000C4ED069A01E084ED069AD4ED050A94ED55
:1027F000060A70EE800AC4ED050A94ED021AD4EDC3
:10280000031A21EE001A01EEA01AD4ED070A30EEE9
:10281000600AD4ED040A00EE801A84ED091A0C490E
:10282000606A884203DD9FED0B0A84ED090A0A49BC
:10283000606A884203D99FED090A84ED090A94ED84
:10284000090ABDEC048B10BD0000B443FFFF78BC47
:1028500000007A4500007A4500007AC500007AC57C
:1028600091ED000A80ED020A91ED010A80ED030A64
:1028700091ED020A80ED040A9FED060A80ED090A37
:1028800080ED080A80ED070A80ED060A80ED050A52
:10289000704700000000000010B52DED068BF0EE33
:1028A000408A9FED4FAB9FED509B30EEC18A504C5C
:1028B00018EE100AFDF730FE0A46014601EE101A26
:1028C00022F0004211EE101A42EC111B53EC1A2BAD
:1028D00051EC110BFDF74CFE02D24FF4FA50208060
:1028E00018EE100AFDF718FE0A46014601EE101A0E
:1028F00022F0004211EE101A42EC111B53EC1A2B7D
:1029000051EC110BFDF71CFE17D218EE100AFDF763
:1029100003FE0A46014601EE101A22F0004211EEB3
:10292000101A42EC111B53EC192B51EC110BFDF753
:102930001FFE02D240F69800208018EE100AFDF724
:10294000EBFD0A46014601EE101A22F0004211EE9C
:10295000101A42EC111B53EC192B51EC110BFDF723
:10296000EFFD19D218EE100AFDF7D6FD0A46014612
:1029700001EE101A22F0004211EE101A9FED1D0B0D
:1029800042EC111B53EC102B51EC110BFDF7F0FD39
:1029900002D240F2DC502080208800EE100AB8EE0F
:1029A000400AF4EEC08AF1EE10FA06DD00EE100ADD
:1029B000B8EE400ABDEC068B10BD404200EE100A96
:1029C000B8EEC00AF4EEC08AF1EE10FA04D200EEBE
:1029D000100AB8EEC00AEDE7B0EE680AEAE70000B8
:1029E00000000000008076400000000000006E4003
:1029F000080100200000000000005E40084A016855
:102A0000914203DD9FED070A80ED000A064A016846
:102A1000914203D99FED050A80ED000A704700003E
:102A20000080BB450080BB450080BBC50080BBC5A6
:102A3000012000F06DFDFBE710B5502080F31188F8
:102A4000BFF34F8FBFF36F8F02F0DCF818B104496A
:102A50004FF080500860002080F3118810BD000006
:102A600004ED00E030B593B0302107A8FDF754FC29
:102A7000142102A8FDF750FC00251D48016841F013
:102A800080510160006800F0805001901948016891
:102A900041F480410160006800F48040019002240C
:102AA000079401200A9010200B900D940E95082099
:102AB0000F90A820109011940420129007A8FEF700
:102AC0008DFE08B1FDF7C7FE0F2002900394049518
:102AD0004FF4A05005904FF480500690052102A8B5
:102AE000FEF75CFD002801D0FDF7B5FE13B030BD48
:102AF00040380240007000400248016841F4700113
:102B00000160704788ED00E00148FFF7B6B80000AB
:102B1000A40800202DE9F0410268264D264E274FDB
:102B2000DFF89CC0274B4FF08048A84209D04045B1
:102B300007D0B04205D0B84203D0604501D09842DA
:102B400003D122F070044A682243A8421BD04045BA
:102B500019D0B04217D0B84215D0604513D0984272
:102B600011D0194CA0420ED0184CA0420BD0184CDA
:102B7000A04208D0174CA04205D0174CA04202D06A
:102B8000164CA04203D122F44074CA6822434C6917
:102B900022F08002224302608A68C2620A6882626E
:102BA000A84201D0984201D1096901630121416124
:102BB000BDE8F08100000140000400400008004032
:102BC000000C00400004014000400140004401406E
:102BD0000048014000180040001C00400020004058
:102BE00010B5806B0021C185C184FFF70BF910BDC2
:102BF00001680C3151E8002F22F4907241E8002363
:102C0000002BF5D10168143151E8002F22F00102A8
:102C100041E80023002BF5D1016B012909D101689E
:102C20000C3151E8002F22F0100241E80023002B64
:102C3000F5D1202180F83E1000210163704710B5C6
:102C40000168CA6822F04002CA60202180F83D1065
:102C5000FFF721FC002010BD08B590F83E10222996
:102C600001D0022008BD82684FF480539A4201D1FE
:102C7000016921B1816A9A421DD052B10BE0816A8B
:102C800002685268C2F308020A80816A891C816264
:102C900009E002697AB10268526802F07F020A70A4
:102CA000816A491C8162C18D491E0904090CC185D4
:102CB00005D0002008BD026852680A70F0E701687C
:102CC000CA6822F02002CA600168CA6822F48072D1
:102CD000CA6001684A6922F001024A61202180F835
:102CE0003E10016B012903D0FFF768FA002008BDF0
:102CF0000021016301680C3151E8002F22F010021D
:102D000041E80023002BF5D101680A68D20602D5FC
:102D10000A6849680091818DFFF773F8E6E70000C3
:102D20002DE9F041044620680169E26821F4405130
:102D300011430161A1682069E269014360691043A0
:102D400001432068C26849F20C639A430A43C26097
:102D500020684169A26921F44071114341613349FE
:102D60002068884202D03249884202D1FEF7F0FC46
:102D700001E0FEF7DDFCE169002319276425322616
:102D8000B1F5004F28D061688B0F8A00A0FB0701C6
:102D9000FDF778FA0146B0FBF5F07A42504301EBBB
:102DA000800006EB0010B0FBF5F000F0F002B1FB84
:102DB000F5F002EB0012B1FBF5F07B42584301EB5A
:102DC000800006EB0010B0FBF5F0216800F00F006A
:102DD00010448860BDE8F08161684A18A0FB0701D3
:102DE0005B41FDF74FFA0146B0FBF5F00201B1FB84
:102DF000F5F06FF01803584301EB800006EBC000BC
:102E0000B0FBF5F000F0F80002EB4002B1FBF5F08A
:102E1000584301EB800006EBC000B0FBF5F02168E1
:102E200000F0070010448860D4E700000010014063
:102E30000014014081628285C28500210164222242
:102E400080F83E2080F83C100169002904D0016818
:102E5000CA6842F48072CA6001684A6942F001029D
:102E60004A610068C16841F02001C16000207047DC
:102E700090F83D10212901D0022070478168B1F5FA
:102E8000805F01D1016961B1016A4A1C0262026876
:102E900009785160C18C491E0904090CC1840AD00B
:102EA00013E0016A02680988C1F308015160016AF0
:102EB000891C0162EEE70168CA6822F08002CA60DC
:102EC0000068C16841F04001C160002070472DE9F1
:102ED000F04104460E4617469846069D25E0681CBC
:102EE00023D02DB1FEF790FAA0EB0800A8421CD920
:102EF00020680C3050E8001F21F4D07140E8001227
:102F0000002AF5D12068143050E8001F21F001019B
:102F100040E80012002AF5D120203C346070A070F7
:102F2000002020700320BDE8F0812068006836EAA8
:102F3000000004D00020B842D1D00020F3E70120E7
:102F4000F9E700000148FEF75FBF00001C08002001
:102F50000148FEF759BF000060080020FEE709079E
:102F6000090E002804DB00F1E02080F8001470470F
:102F700000F00F0000F1E02080F8141D704702E01F
:102F800008C8121F08C1002AFAD1704770470020F4
:102F900001E001C1121F002AFBD1704700B58BB0C0
:102FA000012109910020079008910190029003905F
:102FB00004900690059001A90C48FDF7D9FC0B4838
:102FC000FEF7ADF802210948FDF747FC0E200A90F4
:102FD000069001A90648FDF7CBFC0548FEF79FF8CF
:102FE00002210348FDF739FC0BB000BDCC070020DF
:102FF000F40700200020064A00EB400132F831308F
:1030000002EBC1010B82401CC0B20528F4D370470B
:103010000847002000F00300024900EB400001EBEC
:10302000C00070470847002088B02448D0E90A2330
:10303000416ACDE906230591D0E90C12806BCDE9F8
:103040000212049005A91E48FFF70AFC1C4802A9B9
:103050002830FFF705FC322001F042F9194D1A4CD7
:1030600001F0CAFD0190164895ED1D0AD4ED060A3F
:103070002830FFF722FB84ED070A13481C30FFF7C6
:10308000BDFCB5F96400D4ED070A00EE100A0C4847
:10309000B8EEC00AFFF7EAFA84ED080ABDEEC00AEE
:1030A00000231A4610EE100A194600B2FDF78CFBF9
:1030B000022101A801F03CF9D2E700000C50000801
:1030C0009049002008470020C8000020FEF7AAF918
:1030D000FFF7C8FCFFF75AFAFFF7E0F9FFF700FA2D
:1030E000FFF78AFAFFF7A4FAFFF758FF3223052209
:1030F0000D490E48FFF770F90B4901220D390B48B5
:10310000FFF744F8084901220C390948FFF73EF857
:103110000020FFF77FFF04491039C860FFF702FA6B
:1031200000F0FEF9FEE70000100000201C0800205F
:103130006008002040F6B83001F0D2F808489FED52
:10314000070A80ED000A80ED010A80ED020A00F016
:1031500025FF052000F0DCF9F9E700000000000081
:10316000004A002001460020842900D0C81C704776
:1031700070B52DED028B0028154C25D0012820D1EB
:103180009FED140AB0EE401AF0EE400A00F078FE0F
:103190006068FDF7C1F99FED108B53EC182BFDF71C
:1031A00038F9FDF7FDF90E4D2860A068FDF7B4F978
:1031B00053EC182BFDF72DF9FDF7F2F968600020AC
:1031C0002070BDEC028B70BD01202070F9E700007B
:1031D000C8000020000000009E8161C5E11FF83F8B
:1031E000004A00202DED048B8AB040F6B83001F083
:1031F00077F8AB4890E80E000791CDE90823D0E9B5
:103200000423C168CDE905230491D0E90612006AC0
:10321000CDE9011203900024FFF7ECFEA14EA6F1C8
:10322000A00904EB840506EBC50007A9FFF718FB0E
:1032300009EBC50004A9FFF713FB641CE4B2042CDE
:10324000EFD3984801A9A030FFF70AFB322001F024
:1032500047F8964C944DF5EE008AB6EE008A944FEE
:10326000A4F5F278A4F5FA7A01F0C6FC009028786B
:1032700000287CD097ED051AD7ED0B0AD7ED111A6F
:1032800031EE200A30EE212A97ED170A32EE000ABD
:1032900020EE280A84ED070A70EEC00A31EE401ACB
:1032A00030EEC11A21EE081A85ED011A31EEC00A7E
:1032B00030EE600A20EE080A85ED020A7948E83807
:1032C00090ED000AD0ED010AB1EE401A71EE601ADD
:1032D00090ED021A71EEC11AC8ED001A70EE601A74
:1032E00071EEC11AC8ED011A70EE201A71EEC11A02
:1032F000C8ED021A30EEC00A30EE410A88ED030A2A
:10330000002608EB8600D0ED000A06EB460007EB2E
:10331000C000B0F9040000EE100A06EB860009EBCD
:10332000C000B8EEC00AFFF7A1F90AEB860080EDF5
:10333000000A761CF6B2042EE3D35A48DC38FDF7B7
:1033400067FA9AED030ABDEEC00A10EE100A9AED74
:10335000020A03B2BDEEC00A10EE100A9AED010A8D
:1033600002B2BDEEC00A10EE100A01B200E00DE09C
:103370009AED000ABDEEC00A10EE100A00B2FDF789
:10338000FFF90221684600F0D3FF6DE7474E203673
:103390003068FDF7C1F89FED479B53EC192BFCF704
:1033A000C6FFFDF7FDF820607068FDF7B5F853EC37
:1033B000192BFCF7BCFFFDF7F3F86060D6ED020AAD
:1033C00095ED050AA6F19800FFF79EF984ED020A33
:1033D00097ED050A97ED0B1AD7ED111A97ED172AFD
:1033E00070EE010A70EEA10A70EE820A60EEA80A81
:1033F000C4ED070A31EE601A30EE600A31EE400A81
:1034000020EE080A85ED010A71EEE00A70EEC10AAD
:1034100060EE880AC5ED020AD4ED000A2148FFF7E4
:103420004CF985ED030AD4ED010A95ED020AA6F5E3
:103430008870FFF742F985ED040A94ED001AD5ED86
:10344000010A95ED030AFFF727FA85ED030A94EDCB
:10345000011AD5ED020A95ED040AFFF71DFA85ED74
:10346000040AD5ED030AB1EE601A71EE401A94ED2C
:10347000021A71EEC11AC8ED001A70EEC01A71EE90
:10348000C11AC8ED011A70EE801A71EEC11AC8EDAA
:10349000021A30EE600A30EE410A88ED030A2FE787
:1034A0000C500008C8480020C8000020E049002057
:1034B000084700209E8161C5E11FF83F1148A0F533
:1034C000FA72D0ED002AC2ED032A90ED012A82EDB6
:1034D000042A32EE800A82ED000A32EE200A82EDE2
:1034E000010A9FED090A094901E031EE401A11EE87
:1034F000100A8842F9DC82ED021AC2ED051A012099
:1035000010767047004A00200000B4430000B44326
:1035100010B5002800D1012000F0E2FE002010BD0F
:1035200010B500F097FF002010BD7FB504460D4692
:103530006169B4F90800002910D0A16971B1FFF7E1
:1035400011FED4E90521CDE901210090D4E9001054
:103550002B46226901F014FB039010E0FFF702FEF6
:1035600003A9CDE90001208A2B4682B2D4E90010DC
:1035700001F0D4FA012802D0002004B070BD0398F5
:10358000FBE700002DE9F04104460F46174EF568B1
:103590003068001D00F06EFD38B9306890F82C10CE
:1035A00001208840316981433161601C07D137B106
:1035B0003168BDE8F041091D0D4800F0ABBD2C4459
:1035C00030684460AC4206D23168B06B091DBDE87A
:1035D000F04100F087BD3168706B091D00F082FD7D
:1035E000B06A844200D2B462BDE8F0813C000020A1
:1035F000080A002070B5044600F098FD1C4DA8682C
:10360000401CA860286810B1686938B10CE02C60D3
:10361000A868012808D100F089F905E02868E16A66
:10362000C06A884200D82C60686A401C6862E06A00
:1036300001212A698140114329610E4900EB800074
:1036400001EB8000211D00F065FD00F08FFD686931
:1036500000280CD02868E16AC06A884207D206496F
:103660004FF080500860BFF34F8FBFF36F8F70BD76
:103670003C0000202C09002004ED00E038B500F0EB
:1036800055FD104C2068C8B90F4800F01DFD0E48CC
:10369000143000F019FD0C48E060143020610A4B32
:1036A0000020C03B009003F148020C210A2000F0EA
:1036B000CBFF206010B105A100F0DCFDBDE8384073
:1036C00000F054BD78000020DC0A0020546D7251D7
:1036D0000000000070B50C4D0C4E11E000F026FD0E
:1036E000F068C468201D00F0C5FCA868401EA860F2
:1036F0006868401E686000F039FD204600F053F80D
:1037000068680028EAD170BD3C000020F409002060
:1037100030B40B46026C002A0CD0C1681144C16061
:103720008468A14201D30168C160C16830BC1846F9
:10373000FCF7D9BD30BC70472DE9F041044617466F
:103740000026A56B226C002A10D0C7B1E068FCF7F8
:10375000CAFDE168206C091AE1602268914202D238
:10376000A168081AE060022F16D017E02068A8B9F7
:10377000A06801F0AFFA06460020A0600EE0606885
:10378000FCF7B1FD216C606808446060A168884264
:1037900004D32068606001E005B16D1E6D1CA56357
:1037A0003046BDE8F08110B5044694F85100002879
:1037B0000BD0012811D0022814D0502080F311889A
:1037C000BFF34F8FBFF36F8FFEE7206B00F0E4FC79
:1037D0002046BDE8104000F0DFBC2046BDE81040A8
:1037E00000F0DABC10BD00000749CA681168002962
:1037F00004D00021016019B1002070470121F9E7D0
:10380000D068006870470000780000204FF47051C5
:103810000F48420706D0C01D20F007000C49411A8E
:10382000C1F570510B4A1060002353600144083900
:1038300021F00701183A11604B600B600B1A4360CE
:1038400001604068906050604FF0004050617047E8
:10385000040B0020A4000020074E4FF08054074DB9
:10386000FFF738FF30680128FAD92C60BFF34F8F7B
:10387000BFF36F8FF4E700002C09002004ED00E097
:1038800003460098002905D00260C363016401214A
:1038900000F010BF0060F8E72DE9F0478246DDE94F
:1038A00008580A9C9946521E206B00EB820020F0BB
:1038B0000706700707D0502080F31188BFF34F8FA1
:1038C000BFF36F8FFEE7002761B1002023180A5C69
:1038D00083F834200A5C12B1401C1028F6D384F817
:1038E000437001E084F83470072D00D30625E562AB
:1038F0006564A764201D00F0F2FB04F1180000F0DD
:10390000EEFB2461C5F10700A0616462E76484F8FE
:1039100050704A465146304600F0A0FA2060B8F197
:10392000000F01D0C8F80040BDE8F08770B5002452
:10393000124D04EB840005EB800000F0C5FB641C15
:10394000072CF6D30D488C3000F0BEFB0B48A0309E
:1039500000F0BAFB0948B43000F0B6FB0748C830A5
:1039600000F0B2FB0548DC3000F0AEFB0349044830
:103970008C3141631431816370BD00002C0900203B
:103980003C00002030B5134900E011460A6882422D
:10399000FBD34B685C18844203D1406818444860EC
:1039A00008460D6844682318AB420DD1094B183BFB
:1039B0001B689A4206D05268224442600A68126824
:1039C000026002E0036000E00260814200D0086013
:1039D00030BD0000A400002070B5002441600061EB
:1039E0000C4D91420AD8D11A8269914201D3012427
:1039F0000EE0011D286900F075FB09E09A4203D230
:103A0000994201D3012403E0011DE86800F06AFB3C
:103A1000204670BD7800002010B5044600F086FBFB
:103A2000A06B20B1002400F0A1FB204610BD0124B2
:103A3000F9E710B5044600F079FBA06BE16B884212
:103A400001D1012400E0002400F090FB204610BDCD
:103A5000F8B505460E461748C068C068C468201D02
:103A600000F008FB94F82400410718D5A0692B4604
:103A7000411932462046FFF7AFFFA0B100200346B0
:103A8000014600902A46204601F048FA58B95020D5
:103A900080F31188BFF34F8FBFF36F8FFEE720F0E5
:103AA000010084F82400216A01B02046BDE8F040FE
:103AB000084700007800002030B585B0394D67E038
:103AC0000298002864DB049C606910B1201D00F09E
:103AD000D1FA01A800F0B0F8024602980A2857D29D
:103AE000DFE800F00505052D334A05052D3394F870
:103AF000240040F0010084F824000398A1690346E3
:103B000001442046FFF768FF68B3216A20468847D2
:103B100094F8240040073BD5002000900398A16949
:103B2000002342181946204601F0F8F9D8B9502070
:103B300080F31188BFF34F8FBFF36F8FFEE714F848
:103B4000240F20F00100207022E094F8240040F0BF
:103B5000010084F824000398A06128B1811813465D
:103B60002046FFF739FF13E0502080F31188BFF3A0
:103B70004F8FBFF36F8FFEE794F82400810703D4C3
:103B8000204600F009FB03E020F0010084F8240047
:103B9000002202A9286800F0E5FE002890D105B0B7
:103BA00030BD000078000020F8B506460D4600F054
:103BB00099FC684600F040F80446009810B101F006
:103BC00013F9F8BD45B9A64206D801F00DF9214612
:103BD0003046FFF73DFFF8BD0C481DB1016909688B
:103BE00091B10025311B2A46006800F055FB01F019
:103BF000FBF80028EFD106494FF080500860BFF372
:103C00004F8FBFF36F8FF8BD0125EBE778000020E1
:103C100004ED00E00748416B0968002905D0416BBD
:103C2000C968C9684968816270474FF0FF31816295
:103C3000704700003C00002070B5054600F0DCFF36
:103C40000446074EB068844204D200F00BF801200D
:103C5000286001E000202860B460204670BD0000AC
:103C600078000020F8B51A4E20E0C0680568C468E6
:103C7000201D00F0FFF9216A2046884794F82400AF
:103C8000400713D5A0692844A84206D96060246182
:103C9000211DF06800F026FA08E0002003460146E6
:103CA00000902A46204601F039F940B1F0680168D9
:103CB0000029DAD1F0683169F1603061F8BD502037
:103CC00080F31188BFF34F8FBFF36F8FFEE70000C3
:103CD0007800002009484068401C07D0502080F33D
:103CE0001188BFF34F8FBFF36F8FFEE7502080F333
:103CF0001188BFF34F8FBFF36F8FFEE7AC0000203A
:103D000008B56846FFF770FD0099FFF74DFFFFF714
:103D1000D3FEF6E72DE9F041044600F007FA94F9E6
:103D2000455004F1240609E0606A48B1304601F0CC
:103D30001DF808B100F050FB6D1E6DB2002DF3DCD4
:103D40004FF0FF3684F8456000F010FA00F0EEF90D
:103D500094F9445004F1100709E0206948B138464D
:103D600001F004F808B100F037FB6D1E6DB2002DB4
:103D7000F3DC84F84460BDE8F04100F0F7B90000DE
:103D80002DE9F0410546002600F0ACFB324F3868C3
:103D900008B9FFF73BFD786905424DD18DB1083573
:103DA00068070ED005F00700C0F108000544680759
:103DB00007D0502080F31188BFF34F8FBFF36F8F70
:103DC000FEE7CDB37868854236D8234918310846D6
:103DD000046801E0214604466068A84202D22068D7
:103DE0000028F7D13868844226D00E68083620684B
:103DF00008606068411B10290ED96019420707D07E
:103E0000502080F31188BFF34F8FBFF36F8FFEE711
:103E100041606560FFF7B6FD61687868401A7860B8
:103E2000BA68904200D2B8607869014361600020AE
:103E30002060F868401CF86000F0D6FF700707D0DB
:103E4000502080F31188BFF34F8FBFF36F8FFEE7D1
:103E50003046BDE8F08100008C00002024384FF08F
:103E60008073036221F00101C161044981614260F4
:103E70006FF0020140F8201970470000D53C00089F
:103E800010EE102A14499FED152A1548DFED151A7A
:103E90008A4202DDB0EE420A05E010EE102A8242AC
:103EA00001D9B0EE610A10EE902A8A4202DDF0EEEE
:103EB000420A05E010EE902A824201D9F0EE610A32
:103EC00011EE102A8A4201DC11EE101A064880ED2C
:103ED000000AC0ED010A704700803B4500803B4569
:103EE00000803BC500803BC5E04700202DE9F04144
:103EF000274B00EB400103EBC10433F93120B4F947
:103F00000230D11A01F58051B1F5005F1DD9204969
:103F100000EB400001EBC00141F66415D1E902015C
:103F20004FF47A76AA4207DBB34205DC431E41F127
:103F3000FF30C4E9023008E0B24206DCAB4204DBE9
:103F4000401C41F10001C4E90201D4E9020641F636
:103F5000FF71A0FB015706FB0171002300FB031159
:103F6000AB18B4F9100041EBE2714FEAE072181A95
:103F700061EB0201FCF7BCFA9FED061B53EC112B21
:103F8000FCF7D5F9FCF70CFB6061BDE8F08100009F
:103F900008470020000000000000543F3249087E1E
:103FA000002860D001F5FA7091ED000AD0ED000A0A
:103FB0000A4692ED051AF4EEC00AF1EE10FA0BD2A1
:103FC00070EE810AC0ED000AF4EEC00AF1EE10FABC
:103FD0000EDD80ED000A0BE00ADD70EEC10AC0EDD7
:103FE000000AF4EEC00AF1EE10FA01D280ED000AE8
:103FF000D0ED011AD1ED010AF4EEE01AF1EE10FA5B
:104000000BD231EE811A80ED011AB4EEE01AF1EE16
:1040100010FA0EDDC0ED010A0BE00ADD31EEC11A27
:1040200080ED011AB4EEE01AF1EE10FA01D2C0ED03
:10403000010A91ED021A80ED021A90ED001AB4EE19
:10404000401AF1EE10FA0ED190ED010AB4EE600ABA
:10405000F1EE10FA07D10020087632230A22034934
:104060000348FEF7B9B970470C480020FE00002055
:10407000600800200169D0E901329A60D0E901238B
:104080005A604A68824201D182684A600022026115
:104090000868401E0860086870470000034B036012
:1040A00003F1540008608020106070472401002054
:1040B000044B036003F1540008604FF480701060FB
:1040C000704700007803002000F1080141604FF0C4
:1040D000FF328260C16001610021016070470021F0
:1040E0000161704730B50C68621C02D000F1080213
:1040F00002E0026904E01A4653681D68A542FAD935
:1041000053684B6099608A60516008610168491C7E
:10411000016030BD42684A6093688B609368596063
:10412000916008610168491C01607047502080F36C
:104130001188BFF34F8FBFF36F8F0A494868401C47
:10414000486001280CD10848006810F0FF0F07D024
:10415000502080F31188BFF34F8FBFF36F8FFEE7BE
:1041600070470000AC00002004ED00E009494868F9
:10417000002806D0401E4860002801D180F3118835
:104180007047502080F31188BFF34F8FBFF36F8FBC
:10419000FEE70000AC00002070B500282AD00838E7
:1041A0000446154D60686969084207D1502080F3C4
:1041B0001188BFF34F8FBFF36F8FFEE722683AB1CC
:1041C000502080F31188BFF34F8FBFF36F8FFEE74E
:1041D0008843606000F086F9606869680844686038
:1041E0002046FFF7CFFB2869401C2861BDE87040DE
:1041F00000F0FABD70BD00008C0000204FF0E02000
:1042000000210161816105494FF47A720968B1FBAF
:10421000F2F1491E41610721016170473800002019
:1042200010B5FCF719F8114910280ED300F1E02061
:1042300090F8F0030A78904207D2502080F311885A
:10424000BFF34F8FBFF36F8FFEE70948006889689F
:1042500000F4E060884207D9502080F31188BFF352
:104260004F8FBFF36F8FFEE710BD0000AC00002042
:104270000CED00E010B50022064B53F832401CB1A3
:10428000521C082AF9D310BD43F8321003EBC201C7
:10429000486010BDEC08002070B504460D46164677
:1042A000FFF744FF94F944304FF000005B1C01D14C
:1042B00084F8440094F94510491C01D184F8450064
:1042C000FFF754FFA06B28B93246294604F12400B9
:1042D00000F0A2F82046BDE87040FFF71BBD0000CB
:1042E00010B502460020002A12D00F48006B38B1EA
:1042F000502080F31188BFF34F8FBFF36F8FFEE71D
:1043000000F0F0F800211046FFF73CF900F06CFDDA
:10431000002807D105494FF080500860BFF34F8F48
:10432000BFF36F8F10BD00003C00002004ED00E0E3
:1043300070B505460E460023002D0BD096B1204ADD
:10434000106BB8B1502080F31188BFF34F8FBFF3CB
:104350006F8FFEE7502080F31188BFF34F8FBFF3BC
:104360006F8FFEE7502080F31188BFF34F8FBFF3AC
:104370006F8FFEE700F0B6F8D2682C68A11994425E
:1043800005D98C4208D9914206D9012304E08C4218
:1043900001D8914200D9012329601BB1881A00215C
:1043A000FFF7F0F800F020FD002807D105494FF095
:1043B00080500860BFF34F8FBFF36F8F70BD000058
:1043C0003C00002004ED00E002490A6A0260C9686E
:1043D000416070473C00002001490120C8617047DE
:1043E0003C00002010B50C4600280AD00949096895
:1043F0001831FFF777FE2046BDE810400121FFF796
:10440000C1B8502080F31188BFF34F8FBFF36F8F77
:10441000FEE700003C00002070B50D461446002861
:104420000DD00B4909681831FFF774FE0CB14FF03D
:10443000FF3521462846BDE87040FFF7A3B850205D
:1044400080F31188BFF34F8FBFF36F8FFEE700003B
:104450003C00002030B587B000250695059504AADC
:1044600005A906A8FFF71AFEDDE90510CDE9005100
:104470000290002317A11948049A00F081FB184C00
:10448000E06208B1012000E00020012801D100F025
:1044900011FD012809D0401C19D1502080F311884A
:1044A000BFF34F8FBFF36F8FFEE7502080F311886B
:1044B000BFF34F8FBFF36F8F4FF0FF30A06201202B
:1044C0006061E56007B0BDE8304000F043B807B078
:1044D00030BD000049444C45000000005938000838
:1044E0003C0000200248016B491C0163704700003A
:1044F0003C000020154A106B002802D00120D0613A
:1045000070470020D0611069B0FA80F0C0F11F0040
:104510000F4900EB800051F8203073B101EB8000AF
:1045200041684968416000F10803994201D1496836
:1045300041604068C06810607047502080F3118867
:10454000BFF34F8FBFF36F8FFEE700003C000020EA
:104550002C0900201CB537480168374A914207D121
:10456000502080F31188BFF34F8FBFF36F8FFEE7AA
:1045700000683149491E884207D1502080F31188D4
:10458000BFF34F8FBFF36F8FFEE72C490878019080
:10459000FF200870087800909DF800009DF800202A
:1045A00000F0F000904207D0502080F31188BFF354
:1045B0004F8FBFF36F8FFEE79DF80000204C00F097
:1045C000500020700720A06006E0A068401EA06098
:1045D0009DF80000400000909DF800000006F4D413
:1045E000A068032807D0502080F31188BFF34F8FB5
:1045F000BFF36F8FFEE74FF44070A0600198087022
:104600000C482030016841F470010160016841F0FC
:1046100070410160FFF7F2FD00206060FBF7E4FDF0
:104620000848016841F040410160FBF7C9FD0020E6
:104630001CBD000000ED00E071C20F4100E400E08D
:10464000AC00002034EF00E038B5049D002804D011
:104650005BB102B189B1C2B120E0502080F3118872
:10466000BFF34F8FBFF36F8FFEE7502080F31188A9
:10467000BFF34F8FBFF36F8FFEE7502080F3118899
:10468000BFF34F8FBFF36F8FFEE739B1502080F338
:104690001188BFF34F8FBFF36F8FFEE7482400945C
:1046A0001C46012384F846302B460094FFF7E8F8B7
:1046B000204638BD70B504460D46002C25D0FFF7C6
:1046C00035FDD4E90F20216802FB0011A160002113
:1046D000A16321686160E06B2268216C401E00FBD1
:1046E0000121E1604FF0FF3084F8440084F8450078
:1046F00004F110008DB1FFF7E7FC04F12400FFF78F
:10470000E3FCFFF733FD012070BD502080F31188DA
:10471000BFF34F8FBFF36F8FFEE721690029F0D001
:1047200000F024FB0028ECD004494FF080500860D2
:10473000BFF34F8FBFF36F8FE3E7000004ED00E09E
:104740002DE9FF4782B004468A461E460025002C0C
:1047500003D0BAF1000F08D011E0502080F3118887
:10476000BFF34F8FBFF36F8FFEE7206C38B150203F
:1047700080F31188BFF34F8FBFF36F8FFEE7022ED8
:104780000AD1E06B012807D0502080F31188BFF3D5
:104790004F8FBFF36F8FFEE700F020FA48B90498FF
:1047A00038B1502080F31188BFF34F8FBFF36F8F64
:1047B000FEE74FF000094FF08057DFF8E480FFF785
:1047C000B5FCA06BE16B884205D3022E03D00498A0
:1047D00008B325B327E0324651462046FEF7ACFF2A
:1047E000616A59B104F1240000F0C0FA68B1C8F858
:1047F0000070BFF34F8FBFF36F8F06E028B1C8F88A
:104800000070BFF34F8FBFF36F8FFFF7AFFC012036
:1048100006B0BDE8F087FFF7A9FC0020F8E768467E
:10482000FFF7D2FD0125FFF7A1FCFFF75BFEFFF7C5
:104830007DFC94F94400401C01D184F8449094F923
:104840004500401C01D184F84590FFF78FFC04A976
:10485000684600F025F930B12046FFF75BFA00F01A
:10486000C3FA0020D4E72046FFF7E3F890B104F143
:1048700010000499FFF7B6FD2046FFF74BFA00F051
:10488000B3FA00289BD1C8F80070BFF34F8FBFF375
:104890006F8F94E72046FFF73DFA00F0A5FA8EE708
:1048A00004ED00E02DE9F0470446894690461F4696
:1048B000002C03D0B9F1000F08D011E0502080F394
:1048C0001188BFF34F8FBFF36F8FFEE7206C38B1B5
:1048D000502080F31188BFF34F8FBFF36F8FFEE737
:1048E000022F0AD1E06B012807D0502080F31188F5
:1048F000BFF34F8FBFF36F8FFEE7FFF791FC5020A0
:10490000EFF3118680F31188BFF34F8FBFF36F8FE2
:10491000A06BE16B884206D3022F04D0002086F3FF
:104920001188BDE8F08794F94550A06B3A46494696
:104930002046FEF701FF681C04D06D1C84F845502A
:104940000120ECE7606A0028FAD004F1240000F0AE
:104950000DFA0028F4D0B8F1000FF1D00120C8F80A
:104960000000EDE72DE9F74783B004468A460026AC
:10497000002C03D0BAF1000F08D011E0502080F3D2
:104980001188BFF34F8FBFF36F8FFEE7206C38B1F4
:10499000502080F31188BFF34F8FBFF36F8FFEE776
:1049A00000F01CF948B9059838B1502080F31188FF
:1049B000BFF34F8FBFF36F8FFEE700274FF0805894
:1049C000DFF8D890FFF7B2FBA56BC5B15146204682
:1049D000FEF79EFE6D1EA563206950B104F1100024
:1049E00000F0C4F928B1C9F80080BFF34F8FBFF3BE
:1049F0006F8FFFF7BBFB012006B0BDE8F08705987D
:104A000008B126B107E0FFF7B1FB0020F4E701A8E9
:104A1000FFF7DAFC0126FFF7A9FBFFF763FDFFF7BD
:104A200085FB94F94400401C01D184F8447094F94A
:104A30004500401C01D184F84570FFF797FB05A99C
:104A400001A800F02DF858B12046FFF763F900F0F7
:104A5000CBF92046FEF7E0FF0028B3D00020CBE7DB
:104A60002046FEF7D9FF90B104F124000599FFF725
:104A7000B9FC2046FFF74EF900F0B6F90028A1D1A5
:104A8000C9F80080BFF34F8FBFF36F8F9AE72046BE
:104A9000FFF740F900F0A8F994E7000004ED00E00A
:104AA0002DE9F04105460C46002D11D0C4B1FFF7A9
:104AB0003DFB194EF0686B68C11A2268571C17D06D
:104AC0002F68366AB74215D0834213D801241DE0FF
:104AD000502080F31188BFF34F8FBFF36F8FFEE735
:104AE000502080F31188BFF34F8FBFF36F8FFEE725
:104AF00000240BE08A4206D9501A20602846FFF7AE
:104B000063FC002402E0002020600124FFF72EFB5C
:104B10002046BDE8F08100003C0000202DE9FF5F49
:104B20008146DDE90E788A4616469B46B000FFF7BF
:104B300027F9054628000AD05420FFF721F904463A
:104B40000CB1256304E02846FFF726FB00E00024B3
:104B50009CB1002084F85100CDE90240CDE90078F5
:104B60005B46324651464846FEF796FE2046FEF723
:104B700041FD012004B0BDE8F09F4FF0FF30F9E7A0
:104B8000F0B585B00746DDE90A600C9C002815D019
:104B9000E4B1542503952063022084F851000020DD
:104BA00004ADCDE90240CDE900653846FEF774FE5C
:104BB0002046FEF71FFD049805B0F0BD502080F39D
:104BC0001188BFF34F8FBFF36F8FFEE7502080F344
:104BD0001188BFF34F8FBFF36F8FFEE70548416920
:104BE000002903D0006B18B10020704701207047E6
:104BF000022070473C0000200148C0687047000058
:104C00003C0000202DE9F0410026304F386B002891
:104C100005D0B869401CB8613046BDE8F081FD6838
:104C20006D1CFD609DB9786B006838B1502080F331
:104C30001188BFF34F8FBFF36F8FFEE7786BB96BAF
:104C40007963B863386A401C3862FEF7E3FFB86ADC
:104C5000DFF87C8085420DD3786B006838B1786BC3
:104C6000C068C4686068854212D2B86202E04FF042
:104C7000FF30B8623868C06A00EB800058F8200046
:104C8000012800D90126F8690028C5D00126C3E70C
:104C9000201DFFF7EFF9A06A18B104F11800FFF723
:104CA000E9F9E06A01213A6981401143396100EB79
:104CB000800008EB8000211DFFF72CFAE06A3968BC
:104CC000C96A8842C8D30126C6E700003C0000201C
:104CD0002C09002070B504460020002C41D0214D45
:104CE00029688C4207D0502080F31188BFF34F8F82
:104CF000BFF36F8FFEE7A16C71B1491EA164636CB5
:104D0000E26A9A422DD000292BD1201DFFF7B2F97B
:104D1000154A012140B112E0502080F31188BFF301
:104D20004F8FBFF36F8FFEE7E06A00EB800352F80E
:104D3000233023B901FA00F3286998432861606C95
:104D4000E062C0F10700A061E06A2B69814019436D
:104D5000296100EB800002EB8000211DFFF7DAF9EA
:104D6000012070BD3C0000202C0900202DE9F041FD
:104D7000C068C468002C15D004F118000746FFF77E
:104D800079F9174D2A6B0126A2B139461548FFF76C
:104D9000C1F9E06A2968C96A88421ED90120EE611A
:104DA000BDE8F081502080F31188BFF34F8FBFF32F
:104DB0006F8FFEE7201DFFF75DF9E06A2A6906FAAA
:104DC00000F111432961074900EB8000B43901EB80
:104DD0008000211DFFF79EF9DBE70020E0E70000DF
:104DE0003C000020E00900202DE9F04100240027CC
:104DF0002D4D286B002807D0FFF798F9286B401E2F
:104E00002863286B40B14AE0502080F31188BFF33B
:104E10004F8FBFF36F8FFEE7A868E8B3DFF88C8091
:104E200001261EE0D8F80C00C46804F11800FFF752
:104E300021F9201DFFF71EF9E06A2A6906FA00F140
:104E400011432961194900EB8000B43901EB80005E
:104E5000211DFFF75FF9E06A2968C96A884200D31B
:104E6000EE61D8F800000028DCD10CB1FEF7D2FECC
:104E7000AC6944B1FFF7C6FE00B1EE61641E002CC0
:104E8000F8D10020A861E86930B101270849380746
:104E90000860BFF34F8F00E001E0BFF36F8FFFF7B3
:104EA00065F93846BDE8F0813C000020E0090020AB
:104EB00004ED00E030B587B00024FEF7DFFB134DB2
:104EC0002868B0B100200690059004AA05A906A89C
:104ED000FFF7EEF8DDE905100222CDE9002102908E
:104EE00000230BA10C48049AFFF74AFE686000B14A
:104EF000012414B107B0204630BD502080F3118842
:104F0000BFF34F8FBFF36F8FFEE7000078000020E4
:104F1000546D722053766300013D0008FEB50646CD
:104F2000089F9C460020002E13D0154D2C68002CA5
:104F30000ED0009101920296062919DAFFF74EFE73
:104F400002280ED000231A4669462868FFF7F8FBAE
:104F5000FEBD502080F31188BFF34F8FBFF36F8FDA
:104F6000FEE700233A4669462868FFF7E9FBFEBDE5
:104F70000023624669462046FFF794FCFEBD000010
:104F80007800002048500008312A00080000000086
:104F90000000000080000000000000000000000091
:104FA00064500008E5310008020000000000000025
:104FB0000001000000000000000000005C5000083C
:104FC00035310008000000000000000080000000F3
:104FD00000000000000000005450000829300008C4
:104FE0000000000000000000800000000000000041
:104FF00000000000000000000000000001020304A7
:105000000607080900000000010203040000C8426E
:105010006F12833A0000C03F0000C03F17B7513AFB
:1050200017B7D13800001643000000000AD7233C10
:105030000000C03F17B7513A17B7D1380000C84237
:105040006F12833A0000C03F64656661756C7454EA
:1050500061736B0067696D62616C00006D61696E00
:10506000000000006D6F746F720000008C5000082B
:10507000000000200C0100007E2F0008985100085D
:105080000C010020044D00008E2F000800000000DD
:10509000000000000000000000000000FFAA7600F1
:1050A0000000000000000000000000000000000000
:1050B00000000000000000000100000010000000DF
:1050C000000000000024F4000000000000000000C8
:1050D00000000000000000000000000000000000D0
:1050E00000000000000000000000000000000000C0
:1050F00000000000000000000000000000000000B0
:10510000000000000000000000000000000000009F
:10511000000000000000000000000000000000008F
:10512000000000000000000000000000000000007F
:10513000000000000000000000000000AAAAAAAAC7
:10514000000000000000000000000000000000005F
:10515000000000000000000000000000000000004F
:10516000000000000000000000000000000000003F
:10517000000000000000000000000000000000002F
:10518000FF0100000000000000FEFF000100000021
:08519000000000FE401F0000BA
:040000050800018965
:00000001FF
